:020000001628C0
:0E0006008312031323088A00220882000800D8
:1000140003208A110A128000840AA20A0319A30A7F
:08002400F003031D0A28080087
:10002C0083120313A001A101073083169F008601E0
:10003C0089018701FF308500880183120518542837
:10004C0089018701851C302809148717051C2F2866
:10005C0030282828051D49288712091109108713F3
:10006C00891407171F30FB007130FC001E30FD0097
:10007C00FD0B3E28FC0B3E28FB0B3E280000051C0C
:10008C00482849283028851D5328891007138716BE
:10009C000915051C5228532849282328051CF72824
:1000AC00FF3087000230A0000330A10009110910B5
:1000BC0087160713871300302002031CAE28200874
:1000CC0086007F30F00080307002031D6F282108FD
:1000DC00FF3C03189E28051874289E282108033A13
:1000EC00031D7D282008023A031D7D288914200851
:1000FC00023A031D87282108003A031D872889101E
:10010C000915210888000B30FB002630FC005D30FF
:10011C00FD00FD0B8F28FC0B8F28FB0B8F2800009C
:10012C0000002108003A031D9C289E28A103672883
:10013C002108003A031DA4280930A1002008003A28
:10014C00031DA928AE280518AC28AE28A0036128E9
:10015C000518B128F728091487120911071701305F
:10016C00A0000530A10000302002031CF328200859
:10017C00860000302102031CE9280518C628E9284E
:10018C002108023A031DD0282008013A031DD0286B
:10019C0007138717210888000B30FB002630FC0062
:1001AC005D30FD00FD0BD828FC0BD828FB0BD828A4
:1001BC00000000002108003A031DE7280930A100C7
:1001CC00E928A103BF280518EC28F3282008003AD9
:1001DC00031DF128F328A003B9280518F628F728E1
:0601EC0054282328F82826
:02400E004A2F37
:00000001FF
